{
  "_format": "hh-sol-artifact-1",
  "contractName": "AuctionFactory",
  "sourceName": "contracts/AuctionFactory.sol",
  "abi": [
    {
      "anonymous": false,
      "inputs": [
        {
          "indexed": true,
          "internalType": "address",
          "name": "auctionContract",
          "type": "address"
        }
      ],
      "name": "AuctionCreated",
      "type": "event"
    },
    {
      "inputs": [
        {
          "internalType": "uint256",
          "name": "",
          "type": "uint256"
        }
      ],
      "name": "auctions",
      "outputs": [
        {
          "internalType": "contract DutchAuction",
          "name": "",
          "type": "address"
        }
      ],
      "stateMutability": "view",
      "type": "function"
    },
    {
      "inputs": [
        {
          "internalType": "uint256",
          "name": "_startingPrice",
          "type": "uint256"
        },
        {
          "internalType": "uint256",
          "name": "_discountRate",
          "type": "uint256"
        },
        {
          "internalType": "address",
          "name": "_nft",
          "type": "address"
        },
        {
          "internalType": "uint256",
          "name": "_nftId",
          "type": "uint256"
        }
      ],
      "name": "createAuction",
      "outputs": [],
      "stateMutability": "nonpayable",
      "type": "function"
    },
    {
      "inputs": [],
      "name": "getAuctions",
      "outputs": [
        {
          "internalType": "contract DutchAuction[]",
          "name": "",
          "type": "address[]"
        }
      ],
      "stateMutability": "view",
      "type": "function"
    }
  ],
  "bytecode": "0x608060405234801561001057600080fd5b506117a7806100206000396000f3fe60806040523480156200001157600080fd5b5060043610620000465760003560e01c8063571a26a0146200004b578063b1cb48ef1462000081578063d7c0691914620000a1575b600080fd5b620000696004803603810190620000639190620002d3565b620000c3565b60405162000078919062000390565b60405180910390f35b6200009f6004803603810190620000999190620003f2565b62000103565b005b620000ab620001f5565b604051620000ba919062000532565b60405180910390f35b60008181548110620000d457600080fd5b906000526020600020016000915054906101000a900473ffffffffffffffffffffffffffffffffffffffff1681565b60003385858585604051620001189062000285565b6200012895949392919062000578565b604051809103906000f08015801562000145573d6000803e3d6000fd5b5090506000819080600181540180825580915050600190039060005260206000200160009091909190916101000a81548173ffffffffffffffffffffffffffffffffffffffff021916908373ffffffffffffffffffffffffffffffffffffffff1602179055508073ffffffffffffffffffffffffffffffffffffffff167f8a8cc462d00726e0f8c031dd2d6b9dcdf0794fb27a88579830dadee27d43ea7c60405160405180910390a25050505050565b606060008054806020026020016040519081016040528092919081815260200182805480156200027b57602002820191906000526020600020905b8160009054906101000a900473ffffffffffffffffffffffffffffffffffffffff1673ffffffffffffffffffffffffffffffffffffffff168152602001906001019080831162000230575b5050505050905090565b61119c80620005d683390190565b600080fd5b6000819050919050565b620002ad8162000298565b8114620002b957600080fd5b50565b600081359050620002cd81620002a2565b92915050565b600060208284031215620002ec57620002eb62000293565b5b6000620002fc84828501620002bc565b91505092915050565b600073ffffffffffffffffffffffffffffffffffffffff82169050919050565b6000819050919050565b6000620003506200034a620003448462000305565b62000325565b62000305565b9050919050565b600062000364826200032f565b9050919050565b6000620003788262000357565b9050919050565b6200038a816200036b565b82525050565b6000602082019050620003a760008301846200037f565b92915050565b6000620003ba8262000305565b9050919050565b620003cc81620003ad565b8114620003d857600080fd5b50565b600081359050620003ec81620003c1565b92915050565b600080600080608085870312156200040f576200040e62000293565b5b60006200041f87828801620002bc565b94505060206200043287828801620002bc565b93505060406200044587828801620003db565b92505060606200045887828801620002bc565b91505092959194509250565b600081519050919050565b600082825260208201905092915050565b6000819050602082019050919050565b6200049b816200036b565b82525050565b6000620004af838362000490565b60208301905092915050565b6000602082019050919050565b6000620004d58262000464565b620004e181856200046f565b9350620004ee8362000480565b8060005b8381101562000525578151620005098882620004a1565b97506200051683620004bb565b925050600181019050620004f2565b5085935050505092915050565b600060208201905081810360008301526200054e8184620004c8565b905092915050565b6200056181620003ad565b82525050565b620005728162000298565b82525050565b600060a0820190506200058f600083018862000556565b6200059e602083018762000567565b620005ad604083018662000567565b620005bc606083018562000556565b620005cb608083018462000567565b969550505050505056fe6101606040523480156200001257600080fd5b506040516200119c3803806200119c833981810160405281019062000038919062000241565b8473ffffffffffffffffffffffffffffffffffffffff1660c08173ffffffffffffffffffffffffffffffffffffffff16815250508360e0818152505082610140818152505042610100818152505062093a8042620000979190620002f8565b610120818152505062093a8083620000b0919062000333565b60e0511015620000f7576040517f08c379a0000000000000000000000000000000000000000000000000000000008152600401620000ee90620003df565b60405180910390fd5b8173ffffffffffffffffffffffffffffffffffffffff1660808173ffffffffffffffffffffffffffffffffffffffff16815250508060a081815250503073ffffffffffffffffffffffffffffffffffffffff167fabdd2430f9e10eb5db384c1218c42f980dd5fcda760a680a0d95ec506f0963cb82868661010051610120516040516200018995949392919062000412565b60405180910390a250505050506200046f565b600080fd5b600073ffffffffffffffffffffffffffffffffffffffff82169050919050565b6000620001ce82620001a1565b9050919050565b620001e081620001c1565b8114620001ec57600080fd5b50565b6000815190506200020081620001d5565b92915050565b6000819050919050565b6200021b8162000206565b81146200022757600080fd5b50565b6000815190506200023b8162000210565b92915050565b600080600080600060a0868803121562000260576200025f6200019c565b5b60006200027088828901620001ef565b955050602062000283888289016200022a565b945050604062000296888289016200022a565b9350506060620002a988828901620001ef565b9250506080620002bc888289016200022a565b9150509295509295909350565b7f4e487b7100000000000000000000000000000000000000000000000000000000600052601160045260246000fd5b6000620003058262000206565b9150620003128362000206565b92508282019050808211156200032d576200032c620002c9565b5b92915050565b6000620003408262000206565b91506200034d8362000206565b92508282026200035d8162000206565b91508282048414831517620003775762000376620002c9565b5b5092915050565b600082825260208201905092915050565b7f7374617274696e67207072696365203c20646973636f756e7400000000000000600082015250565b6000620003c76019836200037e565b9150620003d4826200038f565b602082019050919050565b60006020820190508181036000830152620003fa81620003b8565b9050919050565b6200040c8162000206565b82525050565b600060a08201905062000429600083018862000401565b62000438602083018762000401565b62000447604083018662000401565b62000456606083018562000401565b62000465608083018462000401565b9695505050505050565b60805160a05160c05160e051610100516101205161014051610c706200052c6000396000818161028f015261079901526000818161023701526102ef01526000818161025e01526107510152600081816102bd01526107750152600081816101ef015281816103c1015281816104ee015281816105a201526106f401526000818161041e01528181610510015281816105ff015261072d015260008181610213015281816103e2015281816104b201526105c30152610c706000f3fe6080604052600436106100865760003560e01c8063a6f2ae3a11610059578063a6f2ae3a14610137578063c6bc518214610141578063c74465651461016c578063d6fbf20214610197578063e6c0e6d5146101c257610086565b806308551a531461008b57806347ccca02146100b65780638622a689146100e157806398d5fdca1461010c575b600080fd5b34801561009757600080fd5b506100a06101ed565b6040516100ad91906107fc565b60405180910390f35b3480156100c257600080fd5b506100cb610211565b6040516100d89190610876565b60405180910390f35b3480156100ed57600080fd5b506100f6610235565b60405161010391906108aa565b60405180910390f35b34801561011857600080fd5b50610121610259565b60405161012e91906108aa565b60405180910390f35b61013f6102ed565b005b34801561014d57600080fd5b5061015661072b565b60405161016391906108aa565b60405180910390f35b34801561017857600080fd5b5061018161074f565b60405161018e91906108aa565b60405180910390f35b3480156101a357600080fd5b506101ac610773565b6040516101b991906108aa565b60405180910390f35b3480156101ce57600080fd5b506101d7610797565b6040516101e491906108aa565b60405180910390f35b7f000000000000000000000000000000000000000000000000000000000000000081565b7f000000000000000000000000000000000000000000000000000000000000000081565b7f000000000000000000000000000000000000000000000000000000000000000081565b6000807f00000000000000000000000000000000000000000000000000000000000000004261028891906108f4565b90506000817f00000000000000000000000000000000000000000000000000000000000000006102b89190610928565b9050807f00000000000000000000000000000000000000000000000000000000000000006102e691906108f4565b9250505090565b7f0000000000000000000000000000000000000000000000000000000000000000421061034f576040517f08c379a0000000000000000000000000000000000000000000000000000000008152600401610346906109c7565b60405180910390fd5b6000610359610259565b90508034101561039e576040517f08c379a000000000000000000000000000000000000000000000000000000000815260040161039590610a33565b60405180910390fd5b7fac7efef435a0325bb5de4e866eb17d867e4a3580134f252bfb595c2694d922e47f00000000000000000000000000000000000000000000000000000000000000007f000000000000000000000000000000000000000000000000000000000000000073ffffffffffffffffffffffffffffffffffffffff16636352211e7f00000000000000000000000000000000000000000000000000000000000000006040518263ffffffff1660e01b815260040161045991906108aa565b602060405180830381865afa158015610476573d6000803e3d6000fd5b505050506040513d601f19601f8201168201806040525081019061049a9190610a96565b6040516104a8929190610b3f565b60405180910390a17f000000000000000000000000000000000000000000000000000000000000000073ffffffffffffffffffffffffffffffffffffffff166323b872dd7f0000000000000000000000000000000000000000000000000000000000000000337f00000000000000000000000000000000000000000000000000000000000000006040518463ffffffff1660e01b815260040161054d93929190610b7b565b600060405180830381600087803b15801561056757600080fd5b505af115801561057b573d6000803e3d6000fd5b505050507fac7efef435a0325bb5de4e866eb17d867e4a3580134f252bfb595c2694d922e47f00000000000000000000000000000000000000000000000000000000000000007f000000000000000000000000000000000000000000000000000000000000000073ffffffffffffffffffffffffffffffffffffffff16636352211e7f00000000000000000000000000000000000000000000000000000000000000006040518263ffffffff1660e01b815260040161063a91906108aa565b602060405180830381865afa158015610657573d6000803e3d6000fd5b505050506040513d601f19601f8201168201806040525081019061067b9190610a96565b604051610689929190610bfe565b60405180910390a16000813461069f91906108f4565b905060008111156106f2573373ffffffffffffffffffffffffffffffffffffffff166108fc829081150290604051600060405180830381858888f193505050501580156106f0573d6000803e3d6000fd5b505b7f000000000000000000000000000000000000000000000000000000000000000073ffffffffffffffffffffffffffffffffffffffff16ff5b7f000000000000000000000000000000000000000000000000000000000000000081565b7f000000000000000000000000000000000000000000000000000000000000000081565b7f000000000000000000000000000000000000000000000000000000000000000081565b7f000000000000000000000000000000000000000000000000000000000000000081565b600073ffffffffffffffffffffffffffffffffffffffff82169050919050565b60006107e6826107bb565b9050919050565b6107f6816107db565b82525050565b600060208201905061081160008301846107ed565b92915050565b6000819050919050565b600061083c610837610832846107bb565b610817565b6107bb565b9050919050565b600061084e82610821565b9050919050565b600061086082610843565b9050919050565b61087081610855565b82525050565b600060208201905061088b6000830184610867565b92915050565b6000819050919050565b6108a481610891565b82525050565b60006020820190506108bf600083018461089b565b92915050565b7f4e487b7100000000000000000000000000000000000000000000000000000000600052601160045260246000fd5b60006108ff82610891565b915061090a83610891565b9250828203905081811115610922576109216108c5565b5b92915050565b600061093382610891565b915061093e83610891565b925082820261094c81610891565b91508282048414831517610963576109626108c5565b5b5092915050565b600082825260208201905092915050565b7f61756374696f6e20657870697265640000000000000000000000000000000000600082015250565b60006109b1600f8361096a565b91506109bc8261097b565b602082019050919050565b600060208201905081810360008301526109e0816109a4565b9050919050565b7f455448203c207072696365000000000000000000000000000000000000000000600082015250565b6000610a1d600b8361096a565b9150610a28826109e7565b602082019050919050565b60006020820190508181036000830152610a4c81610a10565b9050919050565b600080fd5b6000610a63826107bb565b9050919050565b610a7381610a58565b8114610a7e57600080fd5b50565b600081519050610a9081610a6a565b92915050565b600060208284031215610aac57610aab610a53565b5b6000610aba84828501610a81565b91505092915050565b7f4265666f7265207472616e7366657246726f6d00000000000000000000000000600082015250565b6000610af960138361096a565b9150610b0482610ac3565b602082019050919050565b6000610b1a82610843565b9050919050565b610b2a81610b0f565b82525050565b610b3981610a58565b82525050565b60006060820190508181036000830152610b5881610aec565b9050610b676020830185610b21565b610b746040830184610b30565b9392505050565b6000606082019050610b906000830186610b21565b610b9d6020830185610b30565b610baa604083018461089b565b949350505050565b7f4166746572207472616e7366657246726f6d0000000000000000000000000000600082015250565b6000610be860128361096a565b9150610bf382610bb2565b602082019050919050565b60006060820190508181036000830152610c1781610bdb565b9050610c266020830185610b21565b610c336040830184610b30565b939250505056fea2646970667358221220aee6feeb43b9239ad8473e7d01659db86778b77b9b7400bcccacda9df5758fb164736f6c63430008180033a26469706673582212203483a5fbc436a6aeaaf3d9df420786831168f39f037a27a4ca6eb9da172c878264736f6c63430008180033",
  "linkReferences": {},
  "deployedLinkReferences": {}
}