{
  "_format": "hh-sol-artifact-1",
  "contractName": "MyNFT",
  "sourceName": "contracts/NFT.sol",
  "abi": [
    {
      "anonymous": false,
      "inputs": [
        {
          "indexed": true,
          "internalType": "address",
          "name": "owner",
          "type": "address"
        },
        {
          "indexed": true,
          "internalType": "address",
          "name": "spender",
          "type": "address"
        },
        {
          "indexed": true,
          "internalType": "uint256",
          "name": "id",
          "type": "uint256"
        }
      ],
      "name": "Approval",
      "type": "event"
    },
    {
      "anonymous": false,
      "inputs": [
        {
          "indexed": true,
          "internalType": "address",
          "name": "owner",
          "type": "address"
        },
        {
          "indexed": true,
          "internalType": "address",
          "name": "operator",
          "type": "address"
        },
        {
          "indexed": false,
          "internalType": "bool",
          "name": "approved",
          "type": "bool"
        }
      ],
      "name": "ApprovalForAll",
      "type": "event"
    },
    {
      "anonymous": false,
      "inputs": [
        {
          "indexed": true,
          "internalType": "address",
          "name": "from",
          "type": "address"
        },
        {
          "indexed": true,
          "internalType": "address",
          "name": "to",
          "type": "address"
        },
        {
          "indexed": true,
          "internalType": "uint256",
          "name": "id",
          "type": "uint256"
        }
      ],
      "name": "Transfer",
      "type": "event"
    },
    {
      "inputs": [
        {
          "internalType": "address",
          "name": "spender",
          "type": "address"
        },
        {
          "internalType": "uint256",
          "name": "id",
          "type": "uint256"
        }
      ],
      "name": "approve",
      "outputs": [],
      "stateMutability": "nonpayable",
      "type": "function"
    },
    {
      "inputs": [
        {
          "internalType": "address",
          "name": "owner",
          "type": "address"
        }
      ],
      "name": "balanceOf",
      "outputs": [
        {
          "internalType": "uint256",
          "name": "",
          "type": "uint256"
        }
      ],
      "stateMutability": "view",
      "type": "function"
    },
    {
      "inputs": [
        {
          "internalType": "uint256",
          "name": "id",
          "type": "uint256"
        }
      ],
      "name": "burn",
      "outputs": [],
      "stateMutability": "nonpayable",
      "type": "function"
    },
    {
      "inputs": [
        {
          "internalType": "uint256",
          "name": "id",
          "type": "uint256"
        }
      ],
      "name": "getApproved",
      "outputs": [
        {
          "internalType": "address",
          "name": "",
          "type": "address"
        }
      ],
      "stateMutability": "view",
      "type": "function"
    },
    {
      "inputs": [
        {
          "internalType": "address",
          "name": "",
          "type": "address"
        },
        {
          "internalType": "address",
          "name": "",
          "type": "address"
        }
      ],
      "name": "isApprovedForAll",
      "outputs": [
        {
          "internalType": "bool",
          "name": "",
          "type": "bool"
        }
      ],
      "stateMutability": "view",
      "type": "function"
    },
    {
      "inputs": [
        {
          "internalType": "address",
          "name": "to",
          "type": "address"
        },
        {
          "internalType": "uint256",
          "name": "id",
          "type": "uint256"
        },
        {
          "internalType": "string",
          "name": "_tokenURI",
          "type": "string"
        }
      ],
      "name": "mint",
      "outputs": [],
      "stateMutability": "nonpayable",
      "type": "function"
    },
    {
      "inputs": [
        {
          "internalType": "uint256",
          "name": "id",
          "type": "uint256"
        }
      ],
      "name": "ownerOf",
      "outputs": [
        {
          "internalType": "address",
          "name": "owner",
          "type": "address"
        }
      ],
      "stateMutability": "view",
      "type": "function"
    },
    {
      "inputs": [
        {
          "internalType": "address",
          "name": "from",
          "type": "address"
        },
        {
          "internalType": "address",
          "name": "to",
          "type": "address"
        },
        {
          "internalType": "uint256",
          "name": "id",
          "type": "uint256"
        }
      ],
      "name": "safeTransferFrom",
      "outputs": [],
      "stateMutability": "nonpayable",
      "type": "function"
    },
    {
      "inputs": [
        {
          "internalType": "address",
          "name": "from",
          "type": "address"
        },
        {
          "internalType": "address",
          "name": "to",
          "type": "address"
        },
        {
          "internalType": "uint256",
          "name": "id",
          "type": "uint256"
        },
        {
          "internalType": "bytes",
          "name": "data",
          "type": "bytes"
        }
      ],
      "name": "safeTransferFrom",
      "outputs": [],
      "stateMutability": "nonpayable",
      "type": "function"
    },
    {
      "inputs": [
        {
          "internalType": "address",
          "name": "operator",
          "type": "address"
        },
        {
          "internalType": "bool",
          "name": "approved",
          "type": "bool"
        }
      ],
      "name": "setApprovalForAll",
      "outputs": [],
      "stateMutability": "nonpayable",
      "type": "function"
    },
    {
      "inputs": [
        {
          "internalType": "bytes4",
          "name": "interfaceId",
          "type": "bytes4"
        }
      ],
      "name": "supportsInterface",
      "outputs": [
        {
          "internalType": "bool",
          "name": "",
          "type": "bool"
        }
      ],
      "stateMutability": "pure",
      "type": "function"
    },
    {
      "inputs": [
        {
          "internalType": "address",
          "name": "owner",
          "type": "address"
        },
        {
          "internalType": "uint256",
          "name": "index",
          "type": "uint256"
        }
      ],
      "name": "tokenOfOwnerByIndex",
      "outputs": [
        {
          "internalType": "uint256",
          "name": "",
          "type": "uint256"
        }
      ],
      "stateMutability": "view",
      "type": "function"
    },
    {
      "inputs": [
        {
          "internalType": "uint256",
          "name": "tokenId",
          "type": "uint256"
        }
      ],
      "name": "tokenURI",
      "outputs": [
        {
          "internalType": "string",
          "name": "",
          "type": "string"
        }
      ],
      "stateMutability": "view",
      "type": "function"
    },
    {
      "inputs": [],
      "name": "totalSupply",
      "outputs": [
        {
          "internalType": "uint256",
          "name": "",
          "type": "uint256"
        }
      ],
      "stateMutability": "view",
      "type": "function"
    },
    {
      "inputs": [
        {
          "internalType": "address",
          "name": "from",
          "type": "address"
        },
        {
          "internalType": "address",
          "name": "to",
          "type": "address"
        },
        {
          "internalType": "uint256",
          "name": "id",
          "type": "uint256"
        }
      ],
      "name": "transferFrom",
      "outputs": [],
      "stateMutability": "nonpayable",
      "type": "function"
    }
  ],
  "bytecode": "0x608060405234801561001057600080fd5b50612ccd806100206000396000f3fe608060405234801561001057600080fd5b50600436106100f55760003560e01c806342966c6811610097578063b88d4fde11610066578063b88d4fde14610294578063c87b56dd146102b0578063d3fc9864146102e0578063e985e9c5146102fc576100f5565b806342966c68146101fc5780636352211e1461021857806370a0823114610248578063a22cb46514610278576100f5565b806318160ddd116100d357806318160ddd1461017657806323b872dd146101945780632f745c59146101b057806342842e0e146101e0576100f5565b806301ffc9a7146100fa578063081812fc1461012a578063095ea7b31461015a575b600080fd5b610114600480360381019061010f9190611bf1565b61032c565b6040516101219190611c39565b60405180910390f35b610144600480360381019061013f9190611c8a565b6103fe565b6040516101519190611cf8565b60405180910390f35b610174600480360381019061016f9190611d3f565b6104db565b005b61017e6106c3565b60405161018b9190611d8e565b60405180910390f35b6101ae60048036038101906101a99190611da9565b6106d0565b005b6101ca60048036038101906101c59190611d3f565b610c50565b6040516101d79190611d8e565b60405180910390f35b6101fa60048036038101906101f59190611da9565b610d3a565b005b61021660048036038101906102119190611c8a565b610e72565b005b610232600480360381019061022d9190611c8a565b610f1e565b60405161023f9190611cf8565b60405180910390f35b610262600480360381019061025d9190611dfc565b610fc9565b60405161026f9190611d8e565b60405180910390f35b610292600480360381019061028d9190611e55565b611080565b005b6102ae60048036038101906102a99190611efa565b61117d565b005b6102ca60048036038101906102c59190611c8a565b6112bb565b6040516102d79190612012565b60405180910390f35b6102fa60048036038101906102f59190612164565b6113a8565b005b610316600480360381019061031191906121d3565b6113c1565b6040516103239190611c39565b60405180910390f35b60007f80ac58cd000000000000000000000000000000000000000000000000000000007bffffffffffffffffffffffffffffffffffffffffffffffffffffffff1916827bffffffffffffffffffffffffffffffffffffffffffffffffffffffff191614806103f757507f01ffc9a7000000000000000000000000000000000000000000000000000000007bffffffffffffffffffffffffffffffffffffffffffffffffffffffff1916827bffffffffffffffffffffffffffffffffffffffffffffffffffffffff1916145b9050919050565b60008073ffffffffffffffffffffffffffffffffffffffff1660008084815260200190815260200160002060009054906101000a900473ffffffffffffffffffffffffffffffffffffffff1673ffffffffffffffffffffffffffffffffffffffff16036104a0576040517f08c379a00000000000000000000000000000000000000000000000000000000081526004016104979061225f565b60405180910390fd5b6002600083815260200190815260200160002060009054906101000a900473ffffffffffffffffffffffffffffffffffffffff169050919050565b600080600083815260200190815260200160002060009054906101000a900473ffffffffffffffffffffffffffffffffffffffff1690508073ffffffffffffffffffffffffffffffffffffffff163373ffffffffffffffffffffffffffffffffffffffff1614806105d25750600360008273ffffffffffffffffffffffffffffffffffffffff1673ffffffffffffffffffffffffffffffffffffffff16815260200190815260200160002060003373ffffffffffffffffffffffffffffffffffffffff1673ffffffffffffffffffffffffffffffffffffffff16815260200190815260200160002060009054906101000a900460ff165b610611576040517f08c379a0000000000000000000000000000000000000000000000000000000008152600401610608906122cb565b60405180910390fd5b826002600084815260200190815260200160002060006101000a81548173ffffffffffffffffffffffffffffffffffffffff021916908373ffffffffffffffffffffffffffffffffffffffff160217905550818373ffffffffffffffffffffffffffffffffffffffff168273ffffffffffffffffffffffffffffffffffffffff167f8c5be1e5ebec7d5bd14f71427d1e84f3dd0314c0f7b2291e5b200ac8c7c3b92560405160405180910390a4505050565b6000600680549050905090565b60008082815260200190815260200160002060009054906101000a900473ffffffffffffffffffffffffffffffffffffffff1673ffffffffffffffffffffffffffffffffffffffff168373ffffffffffffffffffffffffffffffffffffffff1614610770576040517f08c379a000000000000000000000000000000000000000000000000000000000815260040161076790612337565b60405180910390fd5b600073ffffffffffffffffffffffffffffffffffffffff168273ffffffffffffffffffffffffffffffffffffffff16036107df576040517f08c379a00000000000000000000000000000000000000000000000000000000081526004016107d6906123a3565b60405180910390fd5b6107ea8333836113f0565b610829576040517f08c379a0000000000000000000000000000000000000000000000000000000008152600401610820906122cb565b60405180910390fd5b600160008473ffffffffffffffffffffffffffffffffffffffff1673ffffffffffffffffffffffffffffffffffffffff1681526020019081526020016000206000815480929190610879906123f2565b9190505550600160008373ffffffffffffffffffffffffffffffffffffffff1673ffffffffffffffffffffffffffffffffffffffff16815260200190815260200160002060008154809291906108ce9061241b565b91905055508160008083815260200190815260200160002060006101000a81548173ffffffffffffffffffffffffffffffffffffffff021916908373ffffffffffffffffffffffffffffffffffffffff1602179055506002600082815260200190815260200160002060006101000a81549073ffffffffffffffffffffffffffffffffffffffff021916905560006001600460008673ffffffffffffffffffffffffffffffffffffffff1673ffffffffffffffffffffffffffffffffffffffff168152602001908152602001600020805490506109ab9190612463565b9050600060056000848152602001908152602001600020549050818114610aa6576000600460008773ffffffffffffffffffffffffffffffffffffffff1673ffffffffffffffffffffffffffffffffffffffff1681526020019081526020016000208381548110610a1f57610a1e612497565b5b9060005260206000200154905080600460008873ffffffffffffffffffffffffffffffffffffffff1673ffffffffffffffffffffffffffffffffffffffff1681526020019081526020016000208381548110610a7e57610a7d612497565b5b9060005260206000200181905550816005600083815260200190815260200160002081905550505b600460008673ffffffffffffffffffffffffffffffffffffffff1673ffffffffffffffffffffffffffffffffffffffff168152602001908152602001600020805480610af557610af46124c6565b5b600190038181906000526020600020016000905590556005600084815260200190815260200160002060009055600460008573ffffffffffffffffffffffffffffffffffffffff1673ffffffffffffffffffffffffffffffffffffffff1681526020019081526020016000208390806001815401808255809150506001900390600052602060002001600090919091909150556001600460008673ffffffffffffffffffffffffffffffffffffffff1673ffffffffffffffffffffffffffffffffffffffff16815260200190815260200160002080549050610bd79190612463565b6005600085815260200190815260200160002081905550828473ffffffffffffffffffffffffffffffffffffffff168673ffffffffffffffffffffffffffffffffffffffff167fddf252ad1be2c89b69c2b068fc378daa952ba7f163c4a11628f55a4df523b3ef60405160405180910390a45050505050565b6000600460008473ffffffffffffffffffffffffffffffffffffffff1673ffffffffffffffffffffffffffffffffffffffff168152602001908152602001600020805490508210610cd6576040517f08c379a0000000000000000000000000000000000000000000000000000000008152600401610ccd90612541565b60405180910390fd5b600460008473ffffffffffffffffffffffffffffffffffffffff1673ffffffffffffffffffffffffffffffffffffffff1681526020019081526020016000208281548110610d2757610d26612497565b5b9060005260206000200154905092915050565b610d458383836106d0565b60008273ffffffffffffffffffffffffffffffffffffffff163b1480610e2e575063150b7a0260e01b7bffffffffffffffffffffffffffffffffffffffffffffffffffffffff19168273ffffffffffffffffffffffffffffffffffffffff1663150b7a023386856040518463ffffffff1660e01b8152600401610dca93929190612598565b6020604051808303816000875af1158015610de9573d6000803e3d6000fd5b505050506040513d601f19601f82011682018060405250810190610e0d91906125f7565b7bffffffffffffffffffffffffffffffffffffffffffffffffffffffff1916145b610e6d576040517f08c379a0000000000000000000000000000000000000000000000000000000008152600401610e6490612670565b60405180910390fd5b505050565b60008082815260200190815260200160002060009054906101000a900473ffffffffffffffffffffffffffffffffffffffff1673ffffffffffffffffffffffffffffffffffffffff163373ffffffffffffffffffffffffffffffffffffffff1614610f12576040517f08c379a0000000000000000000000000000000000000000000000000000000008152600401610f09906126dc565b60405180910390fd5b610f1b81611524565b50565b600080600083815260200190815260200160002060009054906101000a900473ffffffffffffffffffffffffffffffffffffffff169050600073ffffffffffffffffffffffffffffffffffffffff168173ffffffffffffffffffffffffffffffffffffffff1603610fc4576040517f08c379a0000000000000000000000000000000000000000000000000000000008152600401610fbb9061225f565b60405180910390fd5b919050565b60008073ffffffffffffffffffffffffffffffffffffffff168273ffffffffffffffffffffffffffffffffffffffff1603611039576040517f08c379a000000000000000000000000000000000000000000000000000000000815260040161103090612748565b60405180910390fd5b600160008373ffffffffffffffffffffffffffffffffffffffff1673ffffffffffffffffffffffffffffffffffffffff168152602001908152602001600020549050919050565b80600360003373ffffffffffffffffffffffffffffffffffffffff1673ffffffffffffffffffffffffffffffffffffffff16815260200190815260200160002060008473ffffffffffffffffffffffffffffffffffffffff1673ffffffffffffffffffffffffffffffffffffffff16815260200190815260200160002060006101000a81548160ff0219169083151502179055508173ffffffffffffffffffffffffffffffffffffffff163373ffffffffffffffffffffffffffffffffffffffff167f17307eab39ab6107e8899845ad3d59bd9653f200f220920489ca2b5937696c31836040516111719190611c39565b60405180910390a35050565b6111888585856106d0565b60008473ffffffffffffffffffffffffffffffffffffffff163b1480611275575063150b7a0260e01b7bffffffffffffffffffffffffffffffffffffffffffffffffffffffff19168473ffffffffffffffffffffffffffffffffffffffff1663150b7a0233888787876040518663ffffffff1660e01b8152600401611211959493929190612795565b6020604051808303816000875af1158015611230573d6000803e3d6000fd5b505050506040513d601f19601f8201168201806040525081019061125491906125f7565b7bffffffffffffffffffffffffffffffffffffffffffffffffffffffff1916145b6112b4576040517f08c379a00000000000000000000000000000000000000000000000000000000081526004016112ab90612670565b60405180910390fd5b5050505050565b60606112c6826117c1565b611305576040517f08c379a00000000000000000000000000000000000000000000000000000000081526004016112fc90612855565b60405180910390fd5b600860008381526020019081526020016000208054611323906128a4565b80601f016020809104026020016040519081016040528092919081815260200182805461134f906128a4565b801561139c5780601f106113715761010080835404028352916020019161139c565b820191906000526020600020905b81548152906001019060200180831161137f57829003601f168201915b50505050509050919050565b6113b2838361182c565b6113bc8282611b60565b505050565b60036020528160005260406000206020528060005260406000206000915091509054906101000a900460ff1681565b60008373ffffffffffffffffffffffffffffffffffffffff168373ffffffffffffffffffffffffffffffffffffffff1614806114b25750600360008573ffffffffffffffffffffffffffffffffffffffff1673ffffffffffffffffffffffffffffffffffffffff16815260200190815260200160002060008473ffffffffffffffffffffffffffffffffffffffff1673ffffffffffffffffffffffffffffffffffffffff16815260200190815260200160002060009054906101000a900460ff165b8061151b57506002600083815260200190815260200160002060009054906101000a900473ffffffffffffffffffffffffffffffffffffffff1673ffffffffffffffffffffffffffffffffffffffff168373ffffffffffffffffffffffffffffffffffffffff16145b90509392505050565b600080600083815260200190815260200160002060009054906101000a900473ffffffffffffffffffffffffffffffffffffffff169050600073ffffffffffffffffffffffffffffffffffffffff168173ffffffffffffffffffffffffffffffffffffffff16036115ca576040517f08c379a00000000000000000000000000000000000000000000000000000000081526004016115c190612921565b60405180910390fd5b60018060008373ffffffffffffffffffffffffffffffffffffffff1673ffffffffffffffffffffffffffffffffffffffff16815260200190815260200160002060008282546116199190612463565b9250508190555060008083815260200190815260200160002060006101000a81549073ffffffffffffffffffffffffffffffffffffffff02191690556002600083815260200190815260200160002060006101000a81549073ffffffffffffffffffffffffffffffffffffffff0219169055600060076000848152602001908152602001600020549050600060016006805490506116b79190612463565b9050808214611720576000600682815481106116d6576116d5612497565b5b9060005260206000200154905080600684815481106116f8576116f7612497565b5b9060005260206000200181905550826007600083815260200190815260200160002081905550505b6006805480611732576117316124c6565b5b60019003818190600052602060002001600090559055600760008581526020019081526020016000206000905583600073ffffffffffffffffffffffffffffffffffffffff168473ffffffffffffffffffffffffffffffffffffffff167fddf252ad1be2c89b69c2b068fc378daa952ba7f163c4a11628f55a4df523b3ef60405160405180910390a450505050565b60008073ffffffffffffffffffffffffffffffffffffffff1660008084815260200190815260200160002060009054906101000a900473ffffffffffffffffffffffffffffffffffffffff1673ffffffffffffffffffffffffffffffffffffffff1614159050919050565b600073ffffffffffffffffffffffffffffffffffffffff168273ffffffffffffffffffffffffffffffffffffffff160361189b576040517f08c379a00000000000000000000000000000000000000000000000000000000081526004016118929061298d565b60405180910390fd5b600073ffffffffffffffffffffffffffffffffffffffff1660008083815260200190815260200160002060009054906101000a900473ffffffffffffffffffffffffffffffffffffffff1673ffffffffffffffffffffffffffffffffffffffff161461193c576040517f08c379a0000000000000000000000000000000000000000000000000000000008152600401611933906129f9565b60405180910390fd5b600160008373ffffffffffffffffffffffffffffffffffffffff1673ffffffffffffffffffffffffffffffffffffffff168152602001908152602001600020600081548092919061198c9061241b565b91905055508160008083815260200190815260200160002060006101000a81548173ffffffffffffffffffffffffffffffffffffffff021916908373ffffffffffffffffffffffffffffffffffffffff160217905550600460008373ffffffffffffffffffffffffffffffffffffffff1673ffffffffffffffffffffffffffffffffffffffff1681526020019081526020016000208190806001815401808255809150506001900390600052602060002001600090919091909150556001600460008473ffffffffffffffffffffffffffffffffffffffff1673ffffffffffffffffffffffffffffffffffffffff16815260200190815260200160002080549050611a979190612463565b600560008381526020019081526020016000208190555060068190806001815401808255809150506001900390600052602060002001600090919091909150556001600680549050611ae99190612463565b6007600083815260200190815260200160002081905550808273ffffffffffffffffffffffffffffffffffffffff16600073ffffffffffffffffffffffffffffffffffffffff167fddf252ad1be2c89b69c2b068fc378daa952ba7f163c4a11628f55a4df523b3ef60405160405180910390a45050565b80600860008481526020019081526020016000209081611b809190612bc5565b505050565b6000604051905090565b600080fd5b600080fd5b60007fffffffff0000000000000000000000000000000000000000000000000000000082169050919050565b611bce81611b99565b8114611bd957600080fd5b50565b600081359050611beb81611bc5565b92915050565b600060208284031215611c0757611c06611b8f565b5b6000611c1584828501611bdc565b91505092915050565b60008115159050919050565b611c3381611c1e565b82525050565b6000602082019050611c4e6000830184611c2a565b92915050565b6000819050919050565b611c6781611c54565b8114611c7257600080fd5b50565b600081359050611c8481611c5e565b92915050565b600060208284031215611ca057611c9f611b8f565b5b6000611cae84828501611c75565b91505092915050565b600073ffffffffffffffffffffffffffffffffffffffff82169050919050565b6000611ce282611cb7565b9050919050565b611cf281611cd7565b82525050565b6000602082019050611d0d6000830184611ce9565b92915050565b611d1c81611cd7565b8114611d2757600080fd5b50565b600081359050611d3981611d13565b92915050565b60008060408385031215611d5657611d55611b8f565b5b6000611d6485828601611d2a565b9250506020611d7585828601611c75565b9150509250929050565b611d8881611c54565b82525050565b6000602082019050611da36000830184611d7f565b92915050565b600080600060608486031215611dc257611dc1611b8f565b5b6000611dd086828701611d2a565b9350506020611de186828701611d2a565b9250506040611df286828701611c75565b9150509250925092565b600060208284031215611e1257611e11611b8f565b5b6000611e2084828501611d2a565b91505092915050565b611e3281611c1e565b8114611e3d57600080fd5b50565b600081359050611e4f81611e29565b92915050565b60008060408385031215611e6c57611e6b611b8f565b5b6000611e7a85828601611d2a565b9250506020611e8b85828601611e40565b9150509250929050565b600080fd5b600080fd5b600080fd5b60008083601f840112611eba57611eb9611e95565b5b8235905067ffffffffffffffff811115611ed757611ed6611e9a565b5b602083019150836001820283011115611ef357611ef2611e9f565b5b9250929050565b600080600080600060808688031215611f1657611f15611b8f565b5b6000611f2488828901611d2a565b9550506020611f3588828901611d2a565b9450506040611f4688828901611c75565b935050606086013567ffffffffffffffff811115611f6757611f66611b94565b5b611f7388828901611ea4565b92509250509295509295909350565b600081519050919050565b600082825260208201905092915050565b60005b83811015611fbc578082015181840152602081019050611fa1565b60008484015250505050565b6000601f19601f8301169050919050565b6000611fe482611f82565b611fee8185611f8d565b9350611ffe818560208601611f9e565b61200781611fc8565b840191505092915050565b6000602082019050818103600083015261202c8184611fd9565b905092915050565b600080fd5b7f4e487b7100000000000000000000000000000000000000000000000000000000600052604160045260246000fd5b61207182611fc8565b810181811067ffffffffffffffff821117156120905761208f612039565b5b80604052505050565b60006120a3611b85565b90506120af8282612068565b919050565b600067ffffffffffffffff8211156120cf576120ce612039565b5b6120d882611fc8565b9050602081019050919050565b82818337600083830152505050565b6000612107612102846120b4565b612099565b90508281526020810184848401111561212357612122612034565b5b61212e8482856120e5565b509392505050565b600082601f83011261214b5761214a611e95565b5b813561215b8482602086016120f4565b91505092915050565b60008060006060848603121561217d5761217c611b8f565b5b600061218b86828701611d2a565b935050602061219c86828701611c75565b925050604084013567ffffffffffffffff8111156121bd576121bc611b94565b5b6121c986828701612136565b9150509250925092565b600080604083850312156121ea576121e9611b8f565b5b60006121f885828601611d2a565b925050602061220985828601611d2a565b9150509250929050565b7f746f6b656e20646f65736e277420657869737400000000000000000000000000600082015250565b6000612249601383611f8d565b915061225482612213565b602082019050919050565b600060208201905081810360008301526122788161223c565b9050919050565b7f6e6f7420617574686f72697a6564000000000000000000000000000000000000600082015250565b60006122b5600e83611f8d565b91506122c08261227f565b602082019050919050565b600060208201905081810360008301526122e4816122a8565b9050919050565b7f66726f6d20213d206f776e657200000000000000000000000000000000000000600082015250565b6000612321600d83611f8d565b915061232c826122eb565b602082019050919050565b6000602082019050818103600083015261235081612314565b9050919050565b7f7472616e7366657220746f207a65726f20616464726573730000000000000000600082015250565b600061238d601883611f8d565b915061239882612357565b602082019050919050565b600060208201905081810360008301526123bc81612380565b9050919050565b7f4e487b7100000000000000000000000000000000000000000000000000000000600052601160045260246000fd5b60006123fd82611c54565b9150600082036124105761240f6123c3565b5b600182039050919050565b600061242682611c54565b91507fffffffffffffffffffffffffffffffffffffffffffffffffffffffffffffffff8203612458576124576123c3565b5b600182019050919050565b600061246e82611c54565b915061247983611c54565b9250828203905081811115612491576124906123c3565b5b92915050565b7f4e487b7100000000000000000000000000000000000000000000000000000000600052603260045260246000fd5b7f4e487b7100000000000000000000000000000000000000000000000000000000600052603160045260246000fd5b7f6f776e657220696e646578206f7574206f6620626f756e647300000000000000600082015250565b600061252b601983611f8d565b9150612536826124f5565b602082019050919050565b6000602082019050818103600083015261255a8161251e565b9050919050565b600082825260208201905092915050565b50565b6000612582600083612561565b915061258d82612572565b600082019050919050565b60006080820190506125ad6000830186611ce9565b6125ba6020830185611ce9565b6125c76040830184611d7f565b81810360608301526125d881612575565b9050949350505050565b6000815190506125f181611bc5565b92915050565b60006020828403121561260d5761260c611b8f565b5b600061261b848285016125e2565b91505092915050565b7f756e7361666520726563697069656e7400000000000000000000000000000000600082015250565b600061265a601083611f8d565b915061266582612624565b602082019050919050565b600060208201905081810360008301526126898161264d565b9050919050565b7f6e6f74206f776e65720000000000000000000000000000000000000000000000600082015250565b60006126c6600983611f8d565b91506126d182612690565b602082019050919050565b600060208201905081810360008301526126f5816126b9565b9050919050565b7f6f776e6572203d207a65726f2061646472657373000000000000000000000000600082015250565b6000612732601483611f8d565b915061273d826126fc565b602082019050919050565b6000602082019050818103600083015261276181612725565b9050919050565b60006127748385612561565b93506127818385846120e5565b61278a83611fc8565b840190509392505050565b60006080820190506127aa6000830188611ce9565b6127b76020830187611ce9565b6127c46040830186611d7f565b81810360608301526127d7818486612768565b90509695505050505050565b7f4552433732314d657461646174613a2055524920717565727920666f72206e6f60008201527f6e6578697374656e7420746f6b656e0000000000000000000000000000000000602082015250565b600061283f602f83611f8d565b915061284a826127e3565b604082019050919050565b6000602082019050818103600083015261286e81612832565b9050919050565b7f4e487b7100000000000000000000000000000000000000000000000000000000600052602260045260246000fd5b600060028204905060018216806128bc57607f821691505b6020821081036128cf576128ce612875565b5b50919050565b7f6e6f74206d696e74656400000000000000000000000000000000000000000000600082015250565b600061290b600a83611f8d565b9150612916826128d5565b602082019050919050565b6000602082019050818103600083015261293a816128fe565b9050919050565b7f6d696e7420746f207a65726f2061646472657373000000000000000000000000600082015250565b6000612977601483611f8d565b915061298282612941565b602082019050919050565b600060208201905081810360008301526129a68161296a565b9050919050565b7f616c7265616479206d696e746564000000000000000000000000000000000000600082015250565b60006129e3600e83611f8d565b91506129ee826129ad565b602082019050919050565b60006020820190508181036000830152612a12816129d6565b9050919050565b60008190508160005260206000209050919050565b60006020601f8301049050919050565b600082821b905092915050565b600060088302612a7b7fffffffffffffffffffffffffffffffffffffffffffffffffffffffffffffffff82612a3e565b612a858683612a3e565b95508019841693508086168417925050509392505050565b6000819050919050565b6000612ac2612abd612ab884611c54565b612a9d565b611c54565b9050919050565b6000819050919050565b612adc83612aa7565b612af0612ae882612ac9565b848454612a4b565b825550505050565b600090565b612b05612af8565b612b10818484612ad3565b505050565b5b81811015612b3457612b29600082612afd565b600181019050612b16565b5050565b601f821115612b7957612b4a81612a19565b612b5384612a2e565b81016020851015612b62578190505b612b76612b6e85612a2e565b830182612b15565b50505b505050565b600082821c905092915050565b6000612b9c60001984600802612b7e565b1980831691505092915050565b6000612bb58383612b8b565b9150826002028217905092915050565b612bce82611f82565b67ffffffffffffffff811115612be757612be6612039565b5b612bf182546128a4565b612bfc828285612b38565b600060209050601f831160018114612c2f5760008415612c1d578287015190505b612c278582612ba9565b865550612c8f565b601f198416612c3d86612a19565b60005b82811015612c6557848901518255600182019150602085019450602081019050612c40565b86831015612c825784890151612c7e601f891682612b8b565b8355505b6001600288020188555050505b50505050505056fea264697066735822122076cd2e0a8942b170b6797e53a733b7bb2c4854fbec0aec91855faf7b756ae02e64736f6c63430008180033",
  "linkReferences": {},
  "deployedLinkReferences": {}
}