{
  "_format": "hh-sol-artifact-1",
  "contractName": "AuctionFactory",
  "sourceName": "contracts/AuctionFactory.sol",
  "abi": [
    {
      "inputs": [
        {
          "internalType": "uint256",
          "name": "",
          "type": "uint256"
        }
      ],
      "name": "auctions",
      "outputs": [
        {
          "internalType": "contract DutchAuction",
          "name": "",
          "type": "address"
        }
      ],
      "stateMutability": "view",
      "type": "function"
    },
    {
      "inputs": [
        {
          "internalType": "uint256",
          "name": "_startingPrice",
          "type": "uint256"
        },
        {
          "internalType": "uint256",
          "name": "_discountRate",
          "type": "uint256"
        },
        {
          "internalType": "address",
          "name": "_nft",
          "type": "address"
        },
        {
          "internalType": "uint256",
          "name": "_nftId",
          "type": "uint256"
        }
      ],
      "name": "createAuction",
      "outputs": [],
      "stateMutability": "nonpayable",
      "type": "function"
    },
    {
      "inputs": [],
      "name": "getAuctions",
      "outputs": [
        {
          "internalType": "contract DutchAuction[]",
          "name": "",
          "type": "address[]"
        }
      ],
      "stateMutability": "view",
      "type": "function"
    }
  ],
  "bytecode": "0x608060405234801561001057600080fd5b50611250806100206000396000f3fe60806040523480156200001157600080fd5b5060043610620000465760003560e01c8063571a26a0146200004b578063b1cb48ef1462000081578063d7c0691914620000a1575b600080fd5b6200006960048036038101906200006391906200028e565b620000c3565b6040516200007891906200034b565b60405180910390f35b6200009f6004803603810190620000999190620003ad565b62000103565b005b620000ab620001b0565b604051620000ba9190620004ed565b60405180910390f35b60008181548110620000d457600080fd5b906000526020600020016000915054906101000a900473ffffffffffffffffffffffffffffffffffffffff1681565b600084848484604051620001179062000240565b62000126949392919062000533565b604051809103906000f08015801562000143573d6000803e3d6000fd5b5090506000819080600181540180825580915050600190039060005260206000200160009091909190916101000a81548173ffffffffffffffffffffffffffffffffffffffff021916908373ffffffffffffffffffffffffffffffffffffffff1602179055505050505050565b606060008054806020026020016040519081016040528092919081815260200182805480156200023657602002820191906000526020600020905b8160009054906101000a900473ffffffffffffffffffffffffffffffffffffffff1673ffffffffffffffffffffffffffffffffffffffff1681526020019060010190808311620001eb575b5050505050905090565b610c9a806200058183390190565b600080fd5b6000819050919050565b620002688162000253565b81146200027457600080fd5b50565b60008135905062000288816200025d565b92915050565b600060208284031215620002a757620002a66200024e565b5b6000620002b78482850162000277565b91505092915050565b600073ffffffffffffffffffffffffffffffffffffffff82169050919050565b6000819050919050565b60006200030b62000305620002ff84620002c0565b620002e0565b620002c0565b9050919050565b60006200031f82620002ea565b9050919050565b6000620003338262000312565b9050919050565b620003458162000326565b82525050565b60006020820190506200036260008301846200033a565b92915050565b60006200037582620002c0565b9050919050565b620003878162000368565b81146200039357600080fd5b50565b600081359050620003a7816200037c565b92915050565b60008060008060808587031215620003ca57620003c96200024e565b5b6000620003da8782880162000277565b9450506020620003ed8782880162000277565b9350506040620004008782880162000396565b9250506060620004138782880162000277565b91505092959194509250565b600081519050919050565b600082825260208201905092915050565b6000819050602082019050919050565b620004568162000326565b82525050565b60006200046a83836200044b565b60208301905092915050565b6000602082019050919050565b600062000490826200041f565b6200049c81856200042a565b9350620004a9836200043b565b8060005b83811015620004e0578151620004c488826200045c565b9750620004d18362000476565b925050600181019050620004ad565b5085935050505092915050565b6000602082019050818103600083015262000509818462000483565b905092915050565b6200051c8162000253565b82525050565b6200052d8162000368565b82525050565b60006080820190506200054a600083018762000511565b62000559602083018662000511565b62000568604083018562000522565b62000577606083018462000511565b9594505050505056fe6101606040523480156200001257600080fd5b5060405162000c9a38038062000c9a8339818101604052810190620000389190620001e0565b3373ffffffffffffffffffffffffffffffffffffffff1660c08173ffffffffffffffffffffffffffffffffffffffff16815250508360e0818152505082610140818152505042610100818152505062093a804262000097919062000281565b610120818152505062093a8083620000b09190620002bc565b841015620000f5576040517f08c379a0000000000000000000000000000000000000000000000000000000008152600401620000ec9062000368565b60405180910390fd5b8173ffffffffffffffffffffffffffffffffffffffff1660808173ffffffffffffffffffffffffffffffffffffffff16815250508060a08181525050505050506200038a565b600080fd5b6000819050919050565b620001558162000140565b81146200016157600080fd5b50565b60008151905062000175816200014a565b92915050565b600073ffffffffffffffffffffffffffffffffffffffff82169050919050565b6000620001a8826200017b565b9050919050565b620001ba816200019b565b8114620001c657600080fd5b50565b600081519050620001da81620001af565b92915050565b60008060008060808587031215620001fd57620001fc6200013b565b5b60006200020d8782880162000164565b9450506020620002208782880162000164565b93505060406200023387828801620001c9565b9250506060620002468782880162000164565b91505092959194509250565b7f4e487b7100000000000000000000000000000000000000000000000000000000600052601160045260246000fd5b60006200028e8262000140565b91506200029b8362000140565b9250828201905080821115620002b657620002b562000252565b5b92915050565b6000620002c98262000140565b9150620002d68362000140565b9250828202620002e68162000140565b915082820484148315176200030057620002ff62000252565b5b5092915050565b600082825260208201905092915050565b7f7374617274696e67207072696365203c20646973636f756e7400000000000000600082015250565b60006200035060198362000307565b91506200035d8262000318565b602082019050919050565b60006020820190508181036000830152620003838162000341565b9050919050565b60805160a05160c05160e0516101005161012051610140516108846200041660003960008181610259015261051b01526000818161020101526102b901526000818161022801526104f7015260006102870152600081816101b9015281816103a6015261049a0152600081816103c801526104d30152600081816101dd015261036a01526108846000f3fe60806040526004361061007b5760003560e01c8063a6f2ae3a1161004e578063a6f2ae3a1461012c578063c6bc518214610136578063c744656514610161578063e6c0e6d51461018c5761007b565b806308551a531461008057806347ccca02146100ab5780638622a689146100d657806398d5fdca14610101575b600080fd5b34801561008c57600080fd5b506100956101b7565b6040516100a2919061057e565b60405180910390f35b3480156100b757600080fd5b506100c06101db565b6040516100cd91906105f8565b60405180910390f35b3480156100e257600080fd5b506100eb6101ff565b6040516100f8919061062c565b60405180910390f35b34801561010d57600080fd5b50610116610223565b604051610123919061062c565b60405180910390f35b6101346102b7565b005b34801561014257600080fd5b5061014b6104d1565b604051610158919061062c565b60405180910390f35b34801561016d57600080fd5b506101766104f5565b604051610183919061062c565b60405180910390f35b34801561019857600080fd5b506101a1610519565b6040516101ae919061062c565b60405180910390f35b7f000000000000000000000000000000000000000000000000000000000000000081565b7f000000000000000000000000000000000000000000000000000000000000000081565b7f000000000000000000000000000000000000000000000000000000000000000081565b6000807f0000000000000000000000000000000000000000000000000000000000000000426102529190610676565b90506000817f000000000000000000000000000000000000000000000000000000000000000061028291906106aa565b9050807f00000000000000000000000000000000000000000000000000000000000000006102b09190610676565b9250505090565b7f00000000000000000000000000000000000000000000000000000000000000004210610319576040517f08c379a000000000000000000000000000000000000000000000000000000000815260040161031090610749565b60405180910390fd5b6000610323610223565b905080341015610368576040517f08c379a000000000000000000000000000000000000000000000000000000000815260040161035f906107b5565b60405180910390fd5b7f000000000000000000000000000000000000000000000000000000000000000073ffffffffffffffffffffffffffffffffffffffff166323b872dd7f0000000000000000000000000000000000000000000000000000000000000000337f00000000000000000000000000000000000000000000000000000000000000006040518463ffffffff1660e01b815260040161040593929190610817565b600060405180830381600087803b15801561041f57600080fd5b505af1158015610433573d6000803e3d6000fd5b50505050600081346104459190610676565b90506000811115610498573373ffffffffffffffffffffffffffffffffffffffff166108fc829081150290604051600060405180830381858888f19350505050158015610496573d6000803e3d6000fd5b505b7f000000000000000000000000000000000000000000000000000000000000000073ffffffffffffffffffffffffffffffffffffffff16ff5b7f000000000000000000000000000000000000000000000000000000000000000081565b7f000000000000000000000000000000000000000000000000000000000000000081565b7f000000000000000000000000000000000000000000000000000000000000000081565b600073ffffffffffffffffffffffffffffffffffffffff82169050919050565b60006105688261053d565b9050919050565b6105788161055d565b82525050565b6000602082019050610593600083018461056f565b92915050565b6000819050919050565b60006105be6105b96105b48461053d565b610599565b61053d565b9050919050565b60006105d0826105a3565b9050919050565b60006105e2826105c5565b9050919050565b6105f2816105d7565b82525050565b600060208201905061060d60008301846105e9565b92915050565b6000819050919050565b61062681610613565b82525050565b6000602082019050610641600083018461061d565b92915050565b7f4e487b7100000000000000000000000000000000000000000000000000000000600052601160045260246000fd5b600061068182610613565b915061068c83610613565b92508282039050818111156106a4576106a3610647565b5b92915050565b60006106b582610613565b91506106c083610613565b92508282026106ce81610613565b915082820484148315176106e5576106e4610647565b5b5092915050565b600082825260208201905092915050565b7f61756374696f6e20657870697265640000000000000000000000000000000000600082015250565b6000610733600f836106ec565b915061073e826106fd565b602082019050919050565b6000602082019050818103600083015261076281610726565b9050919050565b7f455448203c207072696365000000000000000000000000000000000000000000600082015250565b600061079f600b836106ec565b91506107aa82610769565b602082019050919050565b600060208201905081810360008301526107ce81610792565b9050919050565b60006107e0826105c5565b9050919050565b6107f0816107d5565b82525050565b60006108018261053d565b9050919050565b610811816107f6565b82525050565b600060608201905061082c60008301866107e7565b6108396020830185610808565b610846604083018461061d565b94935050505056fea26469706673582212200d489193d93c27ff6f73a47c5fcb86486da0f85709f21cf292a8b01e08bdbcfc64736f6c63430008180033a264697066735822122008ad9420254cde331aa016f9df0a9062525e13cb81083b15f4bc0b040baf4c2764736f6c63430008180033",
  "linkReferences": {},
  "deployedLinkReferences": {}
}