{
  "_format": "hh-sol-artifact-1",
  "contractName": "DutchAuction",
  "sourceName": "contracts/DutchAuction.sol",
  "abi": [
    {
      "inputs": [
        {
          "internalType": "uint256",
          "name": "_startingPrice",
          "type": "uint256"
        },
        {
          "internalType": "uint256",
          "name": "_discountRate",
          "type": "uint256"
        },
        {
          "internalType": "address",
          "name": "_nft",
          "type": "address"
        },
        {
          "internalType": "uint256",
          "name": "_nftId",
          "type": "uint256"
        }
      ],
      "stateMutability": "nonpayable",
      "type": "constructor"
    },
    {
      "inputs": [],
      "name": "buy",
      "outputs": [],
      "stateMutability": "payable",
      "type": "function"
    },
    {
      "inputs": [],
      "name": "discountRate",
      "outputs": [
        {
          "internalType": "uint256",
          "name": "",
          "type": "uint256"
        }
      ],
      "stateMutability": "view",
      "type": "function"
    },
    {
      "inputs": [],
      "name": "expiresAt",
      "outputs": [
        {
          "internalType": "uint256",
          "name": "",
          "type": "uint256"
        }
      ],
      "stateMutability": "view",
      "type": "function"
    },
    {
      "inputs": [],
      "name": "getPrice",
      "outputs": [
        {
          "internalType": "uint256",
          "name": "",
          "type": "uint256"
        }
      ],
      "stateMutability": "view",
      "type": "function"
    },
    {
      "inputs": [],
      "name": "nft",
      "outputs": [
        {
          "internalType": "contract IERC721",
          "name": "",
          "type": "address"
        }
      ],
      "stateMutability": "view",
      "type": "function"
    },
    {
      "inputs": [],
      "name": "nftId",
      "outputs": [
        {
          "internalType": "uint256",
          "name": "",
          "type": "uint256"
        }
      ],
      "stateMutability": "view",
      "type": "function"
    },
    {
      "inputs": [],
      "name": "seller",
      "outputs": [
        {
          "internalType": "address payable",
          "name": "",
          "type": "address"
        }
      ],
      "stateMutability": "view",
      "type": "function"
    },
    {
      "inputs": [],
      "name": "startAt",
      "outputs": [
        {
          "internalType": "uint256",
          "name": "",
          "type": "uint256"
        }
      ],
      "stateMutability": "view",
      "type": "function"
    }
  ],
  "bytecode": "0x6101606040523480156200001257600080fd5b5060405162000c9a38038062000c9a8339818101604052810190620000389190620001e0565b3373ffffffffffffffffffffffffffffffffffffffff1660c08173ffffffffffffffffffffffffffffffffffffffff16815250508360e0818152505082610140818152505042610100818152505062093a804262000097919062000281565b610120818152505062093a8083620000b09190620002bc565b841015620000f5576040517f08c379a0000000000000000000000000000000000000000000000000000000008152600401620000ec9062000368565b60405180910390fd5b8173ffffffffffffffffffffffffffffffffffffffff1660808173ffffffffffffffffffffffffffffffffffffffff16815250508060a08181525050505050506200038a565b600080fd5b6000819050919050565b620001558162000140565b81146200016157600080fd5b50565b60008151905062000175816200014a565b92915050565b600073ffffffffffffffffffffffffffffffffffffffff82169050919050565b6000620001a8826200017b565b9050919050565b620001ba816200019b565b8114620001c657600080fd5b50565b600081519050620001da81620001af565b92915050565b60008060008060808587031215620001fd57620001fc6200013b565b5b60006200020d8782880162000164565b9450506020620002208782880162000164565b93505060406200023387828801620001c9565b9250506060620002468782880162000164565b91505092959194509250565b7f4e487b7100000000000000000000000000000000000000000000000000000000600052601160045260246000fd5b60006200028e8262000140565b91506200029b8362000140565b9250828201905080821115620002b657620002b562000252565b5b92915050565b6000620002c98262000140565b9150620002d68362000140565b9250828202620002e68162000140565b915082820484148315176200030057620002ff62000252565b5b5092915050565b600082825260208201905092915050565b7f7374617274696e67207072696365203c20646973636f756e7400000000000000600082015250565b60006200035060198362000307565b91506200035d8262000318565b602082019050919050565b60006020820190508181036000830152620003838162000341565b9050919050565b60805160a05160c05160e0516101005161012051610140516108846200041660003960008181610259015261051b01526000818161020101526102b901526000818161022801526104f7015260006102870152600081816101b9015281816103a6015261049a0152600081816103c801526104d30152600081816101dd015261036a01526108846000f3fe60806040526004361061007b5760003560e01c8063a6f2ae3a1161004e578063a6f2ae3a1461012c578063c6bc518214610136578063c744656514610161578063e6c0e6d51461018c5761007b565b806308551a531461008057806347ccca02146100ab5780638622a689146100d657806398d5fdca14610101575b600080fd5b34801561008c57600080fd5b506100956101b7565b6040516100a2919061057e565b60405180910390f35b3480156100b757600080fd5b506100c06101db565b6040516100cd91906105f8565b60405180910390f35b3480156100e257600080fd5b506100eb6101ff565b6040516100f8919061062c565b60405180910390f35b34801561010d57600080fd5b50610116610223565b604051610123919061062c565b60405180910390f35b6101346102b7565b005b34801561014257600080fd5b5061014b6104d1565b604051610158919061062c565b60405180910390f35b34801561016d57600080fd5b506101766104f5565b604051610183919061062c565b60405180910390f35b34801561019857600080fd5b506101a1610519565b6040516101ae919061062c565b60405180910390f35b7f000000000000000000000000000000000000000000000000000000000000000081565b7f000000000000000000000000000000000000000000000000000000000000000081565b7f000000000000000000000000000000000000000000000000000000000000000081565b6000807f0000000000000000000000000000000000000000000000000000000000000000426102529190610676565b90506000817f000000000000000000000000000000000000000000000000000000000000000061028291906106aa565b9050807f00000000000000000000000000000000000000000000000000000000000000006102b09190610676565b9250505090565b7f00000000000000000000000000000000000000000000000000000000000000004210610319576040517f08c379a000000000000000000000000000000000000000000000000000000000815260040161031090610749565b60405180910390fd5b6000610323610223565b905080341015610368576040517f08c379a000000000000000000000000000000000000000000000000000000000815260040161035f906107b5565b60405180910390fd5b7f000000000000000000000000000000000000000000000000000000000000000073ffffffffffffffffffffffffffffffffffffffff166323b872dd7f0000000000000000000000000000000000000000000000000000000000000000337f00000000000000000000000000000000000000000000000000000000000000006040518463ffffffff1660e01b815260040161040593929190610817565b600060405180830381600087803b15801561041f57600080fd5b505af1158015610433573d6000803e3d6000fd5b50505050600081346104459190610676565b90506000811115610498573373ffffffffffffffffffffffffffffffffffffffff166108fc829081150290604051600060405180830381858888f19350505050158015610496573d6000803e3d6000fd5b505b7f000000000000000000000000000000000000000000000000000000000000000073ffffffffffffffffffffffffffffffffffffffff16ff5b7f000000000000000000000000000000000000000000000000000000000000000081565b7f000000000000000000000000000000000000000000000000000000000000000081565b7f000000000000000000000000000000000000000000000000000000000000000081565b600073ffffffffffffffffffffffffffffffffffffffff82169050919050565b60006105688261053d565b9050919050565b6105788161055d565b82525050565b6000602082019050610593600083018461056f565b92915050565b6000819050919050565b60006105be6105b96105b48461053d565b610599565b61053d565b9050919050565b60006105d0826105a3565b9050919050565b60006105e2826105c5565b9050919050565b6105f2816105d7565b82525050565b600060208201905061060d60008301846105e9565b92915050565b6000819050919050565b61062681610613565b82525050565b6000602082019050610641600083018461061d565b92915050565b7f4e487b7100000000000000000000000000000000000000000000000000000000600052601160045260246000fd5b600061068182610613565b915061068c83610613565b92508282039050818111156106a4576106a3610647565b5b92915050565b60006106b582610613565b91506106c083610613565b92508282026106ce81610613565b915082820484148315176106e5576106e4610647565b5b5092915050565b600082825260208201905092915050565b7f61756374696f6e20657870697265640000000000000000000000000000000000600082015250565b6000610733600f836106ec565b915061073e826106fd565b602082019050919050565b6000602082019050818103600083015261076281610726565b9050919050565b7f455448203c207072696365000000000000000000000000000000000000000000600082015250565b600061079f600b836106ec565b91506107aa82610769565b602082019050919050565b600060208201905081810360008301526107ce81610792565b9050919050565b60006107e0826105c5565b9050919050565b6107f0816107d5565b82525050565b60006108018261053d565b9050919050565b610811816107f6565b82525050565b600060608201905061082c60008301866107e7565b6108396020830185610808565b610846604083018461061d565b94935050505056fea26469706673582212200d489193d93c27ff6f73a47c5fcb86486da0f85709f21cf292a8b01e08bdbcfc64736f6c63430008180033",
  "linkReferences": {},
  "deployedLinkReferences": {}
}