{
  "_format": "hh-sol-artifact-1",
  "contractName": "MyNFT",
  "sourceName": "contracts/NFT.sol",
  "abi": [
    {
      "anonymous": false,
      "inputs": [
        {
          "indexed": true,
          "internalType": "address",
          "name": "owner",
          "type": "address"
        },
        {
          "indexed": true,
          "internalType": "address",
          "name": "spender",
          "type": "address"
        },
        {
          "indexed": true,
          "internalType": "uint256",
          "name": "id",
          "type": "uint256"
        }
      ],
      "name": "Approval",
      "type": "event"
    },
    {
      "anonymous": false,
      "inputs": [
        {
          "indexed": true,
          "internalType": "address",
          "name": "owner",
          "type": "address"
        },
        {
          "indexed": true,
          "internalType": "address",
          "name": "operator",
          "type": "address"
        },
        {
          "indexed": false,
          "internalType": "bool",
          "name": "approved",
          "type": "bool"
        }
      ],
      "name": "ApprovalForAll",
      "type": "event"
    },
    {
      "anonymous": false,
      "inputs": [
        {
          "indexed": true,
          "internalType": "address",
          "name": "from",
          "type": "address"
        },
        {
          "indexed": true,
          "internalType": "address",
          "name": "to",
          "type": "address"
        },
        {
          "indexed": true,
          "internalType": "uint256",
          "name": "id",
          "type": "uint256"
        }
      ],
      "name": "Transfer",
      "type": "event"
    },
    {
      "inputs": [
        {
          "internalType": "address",
          "name": "spender",
          "type": "address"
        },
        {
          "internalType": "uint256",
          "name": "id",
          "type": "uint256"
        }
      ],
      "name": "approve",
      "outputs": [],
      "stateMutability": "nonpayable",
      "type": "function"
    },
    {
      "inputs": [
        {
          "internalType": "address",
          "name": "owner",
          "type": "address"
        }
      ],
      "name": "balanceOf",
      "outputs": [
        {
          "internalType": "uint256",
          "name": "",
          "type": "uint256"
        }
      ],
      "stateMutability": "view",
      "type": "function"
    },
    {
      "inputs": [
        {
          "internalType": "uint256",
          "name": "id",
          "type": "uint256"
        }
      ],
      "name": "burn",
      "outputs": [],
      "stateMutability": "nonpayable",
      "type": "function"
    },
    {
      "inputs": [
        {
          "internalType": "uint256",
          "name": "id",
          "type": "uint256"
        }
      ],
      "name": "getApproved",
      "outputs": [
        {
          "internalType": "address",
          "name": "",
          "type": "address"
        }
      ],
      "stateMutability": "view",
      "type": "function"
    },
    {
      "inputs": [
        {
          "internalType": "address",
          "name": "",
          "type": "address"
        },
        {
          "internalType": "address",
          "name": "",
          "type": "address"
        }
      ],
      "name": "isApprovedForAll",
      "outputs": [
        {
          "internalType": "bool",
          "name": "",
          "type": "bool"
        }
      ],
      "stateMutability": "view",
      "type": "function"
    },
    {
      "inputs": [
        {
          "internalType": "address",
          "name": "to",
          "type": "address"
        },
        {
          "internalType": "uint256",
          "name": "id",
          "type": "uint256"
        }
      ],
      "name": "mint",
      "outputs": [],
      "stateMutability": "nonpayable",
      "type": "function"
    },
    {
      "inputs": [
        {
          "internalType": "uint256",
          "name": "id",
          "type": "uint256"
        }
      ],
      "name": "ownerOf",
      "outputs": [
        {
          "internalType": "address",
          "name": "owner",
          "type": "address"
        }
      ],
      "stateMutability": "view",
      "type": "function"
    },
    {
      "inputs": [
        {
          "internalType": "address",
          "name": "from",
          "type": "address"
        },
        {
          "internalType": "address",
          "name": "to",
          "type": "address"
        },
        {
          "internalType": "uint256",
          "name": "id",
          "type": "uint256"
        }
      ],
      "name": "safeTransferFrom",
      "outputs": [],
      "stateMutability": "nonpayable",
      "type": "function"
    },
    {
      "inputs": [
        {
          "internalType": "address",
          "name": "from",
          "type": "address"
        },
        {
          "internalType": "address",
          "name": "to",
          "type": "address"
        },
        {
          "internalType": "uint256",
          "name": "id",
          "type": "uint256"
        },
        {
          "internalType": "bytes",
          "name": "data",
          "type": "bytes"
        }
      ],
      "name": "safeTransferFrom",
      "outputs": [],
      "stateMutability": "nonpayable",
      "type": "function"
    },
    {
      "inputs": [
        {
          "internalType": "address",
          "name": "operator",
          "type": "address"
        },
        {
          "internalType": "bool",
          "name": "approved",
          "type": "bool"
        }
      ],
      "name": "setApprovalForAll",
      "outputs": [],
      "stateMutability": "nonpayable",
      "type": "function"
    },
    {
      "inputs": [
        {
          "internalType": "bytes4",
          "name": "interfaceId",
          "type": "bytes4"
        }
      ],
      "name": "supportsInterface",
      "outputs": [
        {
          "internalType": "bool",
          "name": "",
          "type": "bool"
        }
      ],
      "stateMutability": "pure",
      "type": "function"
    },
    {
      "inputs": [
        {
          "internalType": "address",
          "name": "owner",
          "type": "address"
        },
        {
          "internalType": "uint256",
          "name": "index",
          "type": "uint256"
        }
      ],
      "name": "tokenOfOwnerByIndex",
      "outputs": [
        {
          "internalType": "uint256",
          "name": "",
          "type": "uint256"
        }
      ],
      "stateMutability": "view",
      "type": "function"
    },
    {
      "inputs": [],
      "name": "totalSupply",
      "outputs": [
        {
          "internalType": "uint256",
          "name": "",
          "type": "uint256"
        }
      ],
      "stateMutability": "view",
      "type": "function"
    },
    {
      "inputs": [
        {
          "internalType": "address",
          "name": "from",
          "type": "address"
        },
        {
          "internalType": "address",
          "name": "to",
          "type": "address"
        },
        {
          "internalType": "uint256",
          "name": "id",
          "type": "uint256"
        }
      ],
      "name": "transferFrom",
      "outputs": [],
      "stateMutability": "nonpayable",
      "type": "function"
    }
  ],
  "bytecode": "0x608060405234801561001057600080fd5b50612570806100206000396000f3fe608060405234801561001057600080fd5b50600436106100ea5760003560e01c806342842e0e1161008c57806370a082311161006657806370a0823114610259578063a22cb46514610289578063b88d4fde146102a5578063e985e9c5146102c1576100ea565b806342842e0e146101f157806342966c681461020d5780636352211e14610229576100ea565b806318160ddd116100c857806318160ddd1461016b57806323b872dd146101895780632f745c59146101a557806340c10f19146101d5576100ea565b806301ffc9a7146100ef578063081812fc1461011f578063095ea7b31461014f575b600080fd5b61010960048036038101906101049190611a24565b6102f1565b6040516101169190611a6c565b60405180910390f35b61013960048036038101906101349190611abd565b6103c3565b6040516101469190611b2b565b60405180910390f35b61016960048036038101906101649190611b72565b6104a0565b005b610173610688565b6040516101809190611bc1565b60405180910390f35b6101a3600480360381019061019e9190611bdc565b610695565b005b6101bf60048036038101906101ba9190611b72565b610c15565b6040516101cc9190611bc1565b60405180910390f35b6101ef60048036038101906101ea9190611b72565b610cff565b005b61020b60048036038101906102069190611bdc565b610d0d565b005b61022760048036038101906102229190611abd565b610e45565b005b610243600480360381019061023e9190611abd565b610ef1565b6040516102509190611b2b565b60405180910390f35b610273600480360381019061026e9190611c2f565b610f9c565b6040516102809190611bc1565b60405180910390f35b6102a3600480360381019061029e9190611c88565b611053565b005b6102bf60048036038101906102ba9190611d2d565b611150565b005b6102db60048036038101906102d69190611db5565b61128e565b6040516102e89190611a6c565b60405180910390f35b60007f80ac58cd000000000000000000000000000000000000000000000000000000007bffffffffffffffffffffffffffffffffffffffffffffffffffffffff1916827bffffffffffffffffffffffffffffffffffffffffffffffffffffffff191614806103bc57507f01ffc9a7000000000000000000000000000000000000000000000000000000007bffffffffffffffffffffffffffffffffffffffffffffffffffffffff1916827bffffffffffffffffffffffffffffffffffffffffffffffffffffffff1916145b9050919050565b60008073ffffffffffffffffffffffffffffffffffffffff1660008084815260200190815260200160002060009054906101000a900473ffffffffffffffffffffffffffffffffffffffff1673ffffffffffffffffffffffffffffffffffffffff1603610465576040517f08c379a000000000000000000000000000000000000000000000000000000000815260040161045c90611e52565b60405180910390fd5b6002600083815260200190815260200160002060009054906101000a900473ffffffffffffffffffffffffffffffffffffffff169050919050565b600080600083815260200190815260200160002060009054906101000a900473ffffffffffffffffffffffffffffffffffffffff1690508073ffffffffffffffffffffffffffffffffffffffff163373ffffffffffffffffffffffffffffffffffffffff1614806105975750600360008273ffffffffffffffffffffffffffffffffffffffff1673ffffffffffffffffffffffffffffffffffffffff16815260200190815260200160002060003373ffffffffffffffffffffffffffffffffffffffff1673ffffffffffffffffffffffffffffffffffffffff16815260200190815260200160002060009054906101000a900460ff165b6105d6576040517f08c379a00000000000000000000000000000000000000000000000000000000081526004016105cd90611ebe565b60405180910390fd5b826002600084815260200190815260200160002060006101000a81548173ffffffffffffffffffffffffffffffffffffffff021916908373ffffffffffffffffffffffffffffffffffffffff160217905550818373ffffffffffffffffffffffffffffffffffffffff168273ffffffffffffffffffffffffffffffffffffffff167f8c5be1e5ebec7d5bd14f71427d1e84f3dd0314c0f7b2291e5b200ac8c7c3b92560405160405180910390a4505050565b6000600680549050905090565b60008082815260200190815260200160002060009054906101000a900473ffffffffffffffffffffffffffffffffffffffff1673ffffffffffffffffffffffffffffffffffffffff168373ffffffffffffffffffffffffffffffffffffffff1614610735576040517f08c379a000000000000000000000000000000000000000000000000000000000815260040161072c90611f2a565b60405180910390fd5b600073ffffffffffffffffffffffffffffffffffffffff168273ffffffffffffffffffffffffffffffffffffffff16036107a4576040517f08c379a000000000000000000000000000000000000000000000000000000000815260040161079b90611f96565b60405180910390fd5b6107af8333836112bd565b6107ee576040517f08c379a00000000000000000000000000000000000000000000000000000000081526004016107e590611ebe565b60405180910390fd5b600160008473ffffffffffffffffffffffffffffffffffffffff1673ffffffffffffffffffffffffffffffffffffffff168152602001908152602001600020600081548092919061083e90611fe5565b9190505550600160008373ffffffffffffffffffffffffffffffffffffffff1673ffffffffffffffffffffffffffffffffffffffff16815260200190815260200160002060008154809291906108939061200e565b91905055508160008083815260200190815260200160002060006101000a81548173ffffffffffffffffffffffffffffffffffffffff021916908373ffffffffffffffffffffffffffffffffffffffff1602179055506002600082815260200190815260200160002060006101000a81549073ffffffffffffffffffffffffffffffffffffffff021916905560006001600460008673ffffffffffffffffffffffffffffffffffffffff1673ffffffffffffffffffffffffffffffffffffffff168152602001908152602001600020805490506109709190612056565b9050600060056000848152602001908152602001600020549050818114610a6b576000600460008773ffffffffffffffffffffffffffffffffffffffff1673ffffffffffffffffffffffffffffffffffffffff16815260200190815260200160002083815481106109e4576109e361208a565b5b9060005260206000200154905080600460008873ffffffffffffffffffffffffffffffffffffffff1673ffffffffffffffffffffffffffffffffffffffff1681526020019081526020016000208381548110610a4357610a4261208a565b5b9060005260206000200181905550816005600083815260200190815260200160002081905550505b600460008673ffffffffffffffffffffffffffffffffffffffff1673ffffffffffffffffffffffffffffffffffffffff168152602001908152602001600020805480610aba57610ab96120b9565b5b600190038181906000526020600020016000905590556005600084815260200190815260200160002060009055600460008573ffffffffffffffffffffffffffffffffffffffff1673ffffffffffffffffffffffffffffffffffffffff1681526020019081526020016000208390806001815401808255809150506001900390600052602060002001600090919091909150556001600460008673ffffffffffffffffffffffffffffffffffffffff1673ffffffffffffffffffffffffffffffffffffffff16815260200190815260200160002080549050610b9c9190612056565b6005600085815260200190815260200160002081905550828473ffffffffffffffffffffffffffffffffffffffff168673ffffffffffffffffffffffffffffffffffffffff167fddf252ad1be2c89b69c2b068fc378daa952ba7f163c4a11628f55a4df523b3ef60405160405180910390a45050505050565b6000600460008473ffffffffffffffffffffffffffffffffffffffff1673ffffffffffffffffffffffffffffffffffffffff168152602001908152602001600020805490508210610c9b576040517f08c379a0000000000000000000000000000000000000000000000000000000008152600401610c9290612134565b60405180910390fd5b600460008473ffffffffffffffffffffffffffffffffffffffff1673ffffffffffffffffffffffffffffffffffffffff1681526020019081526020016000208281548110610cec57610ceb61208a565b5b9060005260206000200154905092915050565b610d0982826113f1565b5050565b610d18838383610695565b60008273ffffffffffffffffffffffffffffffffffffffff163b1480610e01575063150b7a0260e01b7bffffffffffffffffffffffffffffffffffffffffffffffffffffffff19168273ffffffffffffffffffffffffffffffffffffffff1663150b7a023386856040518463ffffffff1660e01b8152600401610d9d9392919061218b565b6020604051808303816000875af1158015610dbc573d6000803e3d6000fd5b505050506040513d601f19601f82011682018060405250810190610de091906121ea565b7bffffffffffffffffffffffffffffffffffffffffffffffffffffffff1916145b610e40576040517f08c379a0000000000000000000000000000000000000000000000000000000008152600401610e3790612263565b60405180910390fd5b505050565b60008082815260200190815260200160002060009054906101000a900473ffffffffffffffffffffffffffffffffffffffff1673ffffffffffffffffffffffffffffffffffffffff163373ffffffffffffffffffffffffffffffffffffffff1614610ee5576040517f08c379a0000000000000000000000000000000000000000000000000000000008152600401610edc906122cf565b60405180910390fd5b610eee81611725565b50565b600080600083815260200190815260200160002060009054906101000a900473ffffffffffffffffffffffffffffffffffffffff169050600073ffffffffffffffffffffffffffffffffffffffff168173ffffffffffffffffffffffffffffffffffffffff1603610f97576040517f08c379a0000000000000000000000000000000000000000000000000000000008152600401610f8e90611e52565b60405180910390fd5b919050565b60008073ffffffffffffffffffffffffffffffffffffffff168273ffffffffffffffffffffffffffffffffffffffff160361100c576040517f08c379a00000000000000000000000000000000000000000000000000000000081526004016110039061233b565b60405180910390fd5b600160008373ffffffffffffffffffffffffffffffffffffffff1673ffffffffffffffffffffffffffffffffffffffff168152602001908152602001600020549050919050565b80600360003373ffffffffffffffffffffffffffffffffffffffff1673ffffffffffffffffffffffffffffffffffffffff16815260200190815260200160002060008473ffffffffffffffffffffffffffffffffffffffff1673ffffffffffffffffffffffffffffffffffffffff16815260200190815260200160002060006101000a81548160ff0219169083151502179055508173ffffffffffffffffffffffffffffffffffffffff163373ffffffffffffffffffffffffffffffffffffffff167f17307eab39ab6107e8899845ad3d59bd9653f200f220920489ca2b5937696c31836040516111449190611a6c565b60405180910390a35050565b61115b858585610695565b60008473ffffffffffffffffffffffffffffffffffffffff163b1480611248575063150b7a0260e01b7bffffffffffffffffffffffffffffffffffffffffffffffffffffffff19168473ffffffffffffffffffffffffffffffffffffffff1663150b7a0233888787876040518663ffffffff1660e01b81526004016111e49594939291906123a8565b6020604051808303816000875af1158015611203573d6000803e3d6000fd5b505050506040513d601f19601f8201168201806040525081019061122791906121ea565b7bffffffffffffffffffffffffffffffffffffffffffffffffffffffff1916145b611287576040517f08c379a000000000000000000000000000000000000000000000000000000000815260040161127e90612263565b60405180910390fd5b5050505050565b60036020528160005260406000206020528060005260406000206000915091509054906101000a900460ff1681565b60008373ffffffffffffffffffffffffffffffffffffffff168373ffffffffffffffffffffffffffffffffffffffff16148061137f5750600360008573ffffffffffffffffffffffffffffffffffffffff1673ffffffffffffffffffffffffffffffffffffffff16815260200190815260200160002060008473ffffffffffffffffffffffffffffffffffffffff1673ffffffffffffffffffffffffffffffffffffffff16815260200190815260200160002060009054906101000a900460ff165b806113e857506002600083815260200190815260200160002060009054906101000a900473ffffffffffffffffffffffffffffffffffffffff1673ffffffffffffffffffffffffffffffffffffffff168373ffffffffffffffffffffffffffffffffffffffff16145b90509392505050565b600073ffffffffffffffffffffffffffffffffffffffff168273ffffffffffffffffffffffffffffffffffffffff1603611460576040517f08c379a000000000000000000000000000000000000000000000000000000000815260040161145790612442565b60405180910390fd5b600073ffffffffffffffffffffffffffffffffffffffff1660008083815260200190815260200160002060009054906101000a900473ffffffffffffffffffffffffffffffffffffffff1673ffffffffffffffffffffffffffffffffffffffff1614611501576040517f08c379a00000000000000000000000000000000000000000000000000000000081526004016114f8906124ae565b60405180910390fd5b600160008373ffffffffffffffffffffffffffffffffffffffff1673ffffffffffffffffffffffffffffffffffffffff16815260200190815260200160002060008154809291906115519061200e565b91905055508160008083815260200190815260200160002060006101000a81548173ffffffffffffffffffffffffffffffffffffffff021916908373ffffffffffffffffffffffffffffffffffffffff160217905550600460008373ffffffffffffffffffffffffffffffffffffffff1673ffffffffffffffffffffffffffffffffffffffff1681526020019081526020016000208190806001815401808255809150506001900390600052602060002001600090919091909150556001600460008473ffffffffffffffffffffffffffffffffffffffff1673ffffffffffffffffffffffffffffffffffffffff1681526020019081526020016000208054905061165c9190612056565b6005600083815260200190815260200160002081905550600681908060018154018082558091505060019003906000526020600020016000909190919091505560016006805490506116ae9190612056565b6007600083815260200190815260200160002081905550808273ffffffffffffffffffffffffffffffffffffffff16600073ffffffffffffffffffffffffffffffffffffffff167fddf252ad1be2c89b69c2b068fc378daa952ba7f163c4a11628f55a4df523b3ef60405160405180910390a45050565b600080600083815260200190815260200160002060009054906101000a900473ffffffffffffffffffffffffffffffffffffffff169050600073ffffffffffffffffffffffffffffffffffffffff168173ffffffffffffffffffffffffffffffffffffffff16036117cb576040517f08c379a00000000000000000000000000000000000000000000000000000000081526004016117c29061251a565b60405180910390fd5b60018060008373ffffffffffffffffffffffffffffffffffffffff1673ffffffffffffffffffffffffffffffffffffffff168152602001908152602001600020600082825461181a9190612056565b9250508190555060008083815260200190815260200160002060006101000a81549073ffffffffffffffffffffffffffffffffffffffff02191690556002600083815260200190815260200160002060006101000a81549073ffffffffffffffffffffffffffffffffffffffff0219169055600060076000848152602001908152602001600020549050600060016006805490506118b89190612056565b9050808214611921576000600682815481106118d7576118d661208a565b5b9060005260206000200154905080600684815481106118f9576118f861208a565b5b9060005260206000200181905550826007600083815260200190815260200160002081905550505b6006805480611933576119326120b9565b5b60019003818190600052602060002001600090559055600760008581526020019081526020016000206000905583600073ffffffffffffffffffffffffffffffffffffffff168473ffffffffffffffffffffffffffffffffffffffff167fddf252ad1be2c89b69c2b068fc378daa952ba7f163c4a11628f55a4df523b3ef60405160405180910390a450505050565b600080fd5b600080fd5b60007fffffffff0000000000000000000000000000000000000000000000000000000082169050919050565b611a01816119cc565b8114611a0c57600080fd5b50565b600081359050611a1e816119f8565b92915050565b600060208284031215611a3a57611a396119c2565b5b6000611a4884828501611a0f565b91505092915050565b60008115159050919050565b611a6681611a51565b82525050565b6000602082019050611a816000830184611a5d565b92915050565b6000819050919050565b611a9a81611a87565b8114611aa557600080fd5b50565b600081359050611ab781611a91565b92915050565b600060208284031215611ad357611ad26119c2565b5b6000611ae184828501611aa8565b91505092915050565b600073ffffffffffffffffffffffffffffffffffffffff82169050919050565b6000611b1582611aea565b9050919050565b611b2581611b0a565b82525050565b6000602082019050611b406000830184611b1c565b92915050565b611b4f81611b0a565b8114611b5a57600080fd5b50565b600081359050611b6c81611b46565b92915050565b60008060408385031215611b8957611b886119c2565b5b6000611b9785828601611b5d565b9250506020611ba885828601611aa8565b9150509250929050565b611bbb81611a87565b82525050565b6000602082019050611bd66000830184611bb2565b92915050565b600080600060608486031215611bf557611bf46119c2565b5b6000611c0386828701611b5d565b9350506020611c1486828701611b5d565b9250506040611c2586828701611aa8565b9150509250925092565b600060208284031215611c4557611c446119c2565b5b6000611c5384828501611b5d565b91505092915050565b611c6581611a51565b8114611c7057600080fd5b50565b600081359050611c8281611c5c565b92915050565b60008060408385031215611c9f57611c9e6119c2565b5b6000611cad85828601611b5d565b9250506020611cbe85828601611c73565b9150509250929050565b600080fd5b600080fd5b600080fd5b60008083601f840112611ced57611cec611cc8565b5b8235905067ffffffffffffffff811115611d0a57611d09611ccd565b5b602083019150836001820283011115611d2657611d25611cd2565b5b9250929050565b600080600080600060808688031215611d4957611d486119c2565b5b6000611d5788828901611b5d565b9550506020611d6888828901611b5d565b9450506040611d7988828901611aa8565b935050606086013567ffffffffffffffff811115611d9a57611d996119c7565b5b611da688828901611cd7565b92509250509295509295909350565b60008060408385031215611dcc57611dcb6119c2565b5b6000611dda85828601611b5d565b9250506020611deb85828601611b5d565b9150509250929050565b600082825260208201905092915050565b7f746f6b656e20646f65736e277420657869737400000000000000000000000000600082015250565b6000611e3c601383611df5565b9150611e4782611e06565b602082019050919050565b60006020820190508181036000830152611e6b81611e2f565b9050919050565b7f6e6f7420617574686f72697a6564000000000000000000000000000000000000600082015250565b6000611ea8600e83611df5565b9150611eb382611e72565b602082019050919050565b60006020820190508181036000830152611ed781611e9b565b9050919050565b7f66726f6d20213d206f776e657200000000000000000000000000000000000000600082015250565b6000611f14600d83611df5565b9150611f1f82611ede565b602082019050919050565b60006020820190508181036000830152611f4381611f07565b9050919050565b7f7472616e7366657220746f207a65726f20616464726573730000000000000000600082015250565b6000611f80601883611df5565b9150611f8b82611f4a565b602082019050919050565b60006020820190508181036000830152611faf81611f73565b9050919050565b7f4e487b7100000000000000000000000000000000000000000000000000000000600052601160045260246000fd5b6000611ff082611a87565b91506000820361200357612002611fb6565b5b600182039050919050565b600061201982611a87565b91507fffffffffffffffffffffffffffffffffffffffffffffffffffffffffffffffff820361204b5761204a611fb6565b5b600182019050919050565b600061206182611a87565b915061206c83611a87565b925082820390508181111561208457612083611fb6565b5b92915050565b7f4e487b7100000000000000000000000000000000000000000000000000000000600052603260045260246000fd5b7f4e487b7100000000000000000000000000000000000000000000000000000000600052603160045260246000fd5b7f6f776e657220696e646578206f7574206f6620626f756e647300000000000000600082015250565b600061211e601983611df5565b9150612129826120e8565b602082019050919050565b6000602082019050818103600083015261214d81612111565b9050919050565b600082825260208201905092915050565b50565b6000612175600083612154565b915061218082612165565b600082019050919050565b60006080820190506121a06000830186611b1c565b6121ad6020830185611b1c565b6121ba6040830184611bb2565b81810360608301526121cb81612168565b9050949350505050565b6000815190506121e4816119f8565b92915050565b600060208284031215612200576121ff6119c2565b5b600061220e848285016121d5565b91505092915050565b7f756e7361666520726563697069656e7400000000000000000000000000000000600082015250565b600061224d601083611df5565b915061225882612217565b602082019050919050565b6000602082019050818103600083015261227c81612240565b9050919050565b7f6e6f74206f776e65720000000000000000000000000000000000000000000000600082015250565b60006122b9600983611df5565b91506122c482612283565b602082019050919050565b600060208201905081810360008301526122e8816122ac565b9050919050565b7f6f776e6572203d207a65726f2061646472657373000000000000000000000000600082015250565b6000612325601483611df5565b9150612330826122ef565b602082019050919050565b6000602082019050818103600083015261235481612318565b9050919050565b82818337600083830152505050565b6000601f19601f8301169050919050565b60006123878385612154565b935061239483858461235b565b61239d8361236a565b840190509392505050565b60006080820190506123bd6000830188611b1c565b6123ca6020830187611b1c565b6123d76040830186611bb2565b81810360608301526123ea81848661237b565b90509695505050505050565b7f6d696e7420746f207a65726f2061646472657373000000000000000000000000600082015250565b600061242c601483611df5565b9150612437826123f6565b602082019050919050565b6000602082019050818103600083015261245b8161241f565b9050919050565b7f616c7265616479206d696e746564000000000000000000000000000000000000600082015250565b6000612498600e83611df5565b91506124a382612462565b602082019050919050565b600060208201905081810360008301526124c78161248b565b9050919050565b7f6e6f74206d696e74656400000000000000000000000000000000000000000000600082015250565b6000612504600a83611df5565b915061250f826124ce565b602082019050919050565b60006020820190508181036000830152612533816124f7565b905091905056fea264697066735822122046e760cc3fd5b5a887c73199dbcde23d60093916fee5d706a2c38d1920a8b0b164736f6c63430008180033",
  "linkReferences": {},
  "deployedLinkReferences": {}
}